:02000000B82C1A
:10000800FF00030E8301E3000A08E4008A01700878
:10001800A9007108A8007408A7007508A600780848
:10002800A5007A08A4007B08A3007C08A2007D082C
:10003800A1000B1C51280130AA000030AB00861F1C
:10004800332800305406031D2B2863305306031D44
:100058002E283328D30A0319D40AD501D601061F3E
:1000680048280130AA000030AB0000305406031DB8
:100078003F2805305306031D422848280130D30283
:10008800031CD403D501D601861E50280130AA00CE
:100098000030AB00013087060B10061E57280130D0
:1000A800AA000030AB000B1DB028DD0A0319DE0AD8
:1000B800DF0A0319E00A00305E06031D65283230A6
:1000C8005D06031DA328DD01DE01ED012F22700866
:1000D8008312AC007108AD0011220030F40000302A
:1000E800F5000030F6008930F700B8220030F4003F
:1000F8000030F5004830F6008530F70057226F23AE
:100108007008AC007108AD0080307106F2008030D4
:1001180054067202031D9228530870020318962889
:100128000714A32880305406F00080302D06700292
:10013800031DA0282C0853020318A32807106008E1
:10014800013A031DA928F4305F06031DAF28DF011B
:10015800E001AA01AB010B112908F0002808F10001
:100168002708F4002608F5002508F8002408FA00F6
:100178002308FB002208FC002108FD0064088A000F
:0A018800630E8300FF0E7F0E0900D6
:060192000000000008005F
:0E019800213083120313FD00FD0BD028080058
:1001A6000F3083120313FC004730FD00FD0BD928E6
:0A01B600FC0BD9280000000008002F
:0E01C000F201F101F001F801F3010030080036
:1001CE007B15FB1FF1280130F300F201F101F00164
:0801DE00FA0DF20CFF300800DD
:0801E600FA1FF21300300800BB
:1001EE0083120313EC1BFD280713FE2807176C1B45
:1001FE000229871203298716EC1A072907120829E4
:10020E0007166C1A0C2987110D29871565181129E7
:10021E008714122987100715C9200711EC191929FF
:10022E0007131A2907176C191E2987121F298716FB
:10023E00EC1823290712242907166C182829871170
:10024E002929871565182D2987142E29871007153A
:10025E00C9200711651C3529D3203629CC2008006A
:0E026E008312031362088A00610882000800F0
:10027C008312031365106B08EC00F720651408005B
:10028C00710DF80DF90D7408F8027508031C750F43
:10029C00F902F00DF10D0F30FC00710DF80DF90D98
:1002AC007408701C5F29F8027508031C750FF9029D
:1002BC006429F80775080318750FF907F00DF10D8F
:1002CC00FC0B5329701870297408F807750803186B
:0802DC00750FF907000008008E
:1002E400FB14FB1F7C29FF30F300F200F100F00047
:0802F400FA0DF20CFF300800C6
:1002FC000E3083120313FD00FD0B82290000080051
:06030C00FB15FF300800A4
:100312007B14FB1F9429F201FA1FFF30F200F10057
:0A032200F000FA0DF20CFF300800A5
:10032C00A0017208031DAB297108F2007008F100DE
:10033C00F001A0157208031DAB297108F200F10140
:10034C00A011201672080319B9292008F302031D05
:10035C00031CBD290310F21BC129F00DF10DF20D88
:10036C00F30BB129BD290130FC00E020C429023077
:0E037C00FC00E720C4290430FC00F320080038
:10038A0037218A110A128000840AE10A0319E20A53
:08039A00F003031DC529080052
:1003A200E329803083120313E700F629C030E70007
:1003B200F6299430E700F629D430E700F629803098
:1003C200E700F629831203136708013A0319D229B9
:1003D2006708023A0319D7296708033A0319DA2989
:1003E2006708043A0319DD29E0296803F000670869
:1003F200F0077008E7007008EC00F7206510EA01CA
:100402006A0869078400000803190F2A6A08690745
:1004120084000008EB003E21EA0A012A6514080064
:10042200831203137008F8007108F000F101F20161
:10043200F301FB01FC019630F300FA01F01F272AB9
:10044200F809F009F80A0319F00AFA177008F1001E
:0C0452007808F000F801F2019621080083
:10045E00831203139F01C0309F045C09F0007008E3
:10046E0083169F051F179F1783126D08F000F00D5E
:10047E007010F00D7010F00D701070089F041F14A6
:10048E007E211F151F1D4D2A0000492A1F101E0810
:10049E00F100F00183161E08F0040030F10408008C
:1004AE0083120313FB017308031D77080319AE2A89
:1004BE0072087606FA007708F3077E30031C6B2A63
:1004CE00F3020318B12A6E2AF302031CB42A72082F
:1004DE00F8007108FC007008FD00F817F6170310FD
:1004EE00F201F101F0011830A0007D1C882A740879
:1004FE00F00775080318750FF10776080318760FC5
:10050E00F207F20CF10CF00CF80CFC0CFD0C0310C5
:10051E00A00B7C2AF21B982AF80DF00DF10DF20DAE
:10052E00F3037B1B701CAA2AF81FAA2AF00A0319D0
:10053E00F10A0319F20A031DAA2AF20CF10CF00CAF
:10054E00F30A0319B12AFA1FF2130030B62A01304A
:10055E00E020B62A02307221B62A0430E7200000CD
:02056E00080083
:10057000831203137408003A031DD32A7508003A46
:10058000031DD32A7608003A031DD32A7708003AC0
:10059000031DD32AFF30F000FF30F1007F30F2005E
:1005A000FF30F3006E2B8312031377080319622BBD
:1005B00073080319652B720876068039FA00F21762
:1005C000F617A0017208F8007108FC007008FD0021
:1005D0007408FD027508031C750FFC027608031CE5
:1005E000760FF802F801FC01FD01031CFE2A03103E
:1005F000F20CF10CF00CF80C0130A0007708F302BB
:10060000031C082B7E302007F3070318682B0D2BE3
:100610007E302007F307031C6B2B1830FA07FD0D03
:10062000FC0DF80DF00DF10DF20DA00D7408F002A7
:100630007508031C750FF1027608031C760FF20291
:10064000760DA004201C262B7D14312B7408F00796
:1006500075080318750FF10776080318760AF20774
:100660007D10FA031F307A05031D0F2B7B1B7D1CA9
:10067000582B0310F00DF10DF20DA00D7408F002CF
:100680007508031C750FF1027608031C760FF20241
:10069000760D20040139FD070318FC0A0319F80A36
:1006A000031D582BF80CFC0CFD0CF30A0319682BE6
:1006B000FA1FF8137808F2007C08F1007D08F000BA
:1006C00000306D2B013086216D2B0230E0206D2B28
:0E06D000043072216D2B0830E7200000080076
:1006DE0083120313FB0173080319AC2B7208FA0083
:1006EE00F2178E30F302F31FAF2BF309F30A083023
:1006FE007302031C922BF300F10D7208F100F2014C
:10070E0008307302031C922BF300F10DF1017308F4
:10071E00031D03109A2B730803199A2B0310F20C66
:10072E00F10CF30B952B7B1B711CA42B031CA42B20
:10073E00F10A0319F20AF21BBB2BFA1FBE2BF209A8
:10074E00F109F10A0319F20ABE2BF201F101BE2BD7
:10075E007B14FB1FC12BF201FA1FC12BFF30F200DD
:10076E00F100FA0DF20CC12B0130FC00C32B00304E
:10077E00FC00C32BFF30FC00FC080319C72B89219A
:0A078E007108F0007208F100080085
:10079800DE2B803083120313E700F12BC030E70013
:1007A800F12B9430E700F12BD430E700F12B8030A7
:1007B800E700F12B831203136708013A0319CD2BC5
:1007C8006708023A0319D22B6708033A0319D52B95
:1007D8006708043A0319D82BDB2B6803F000670875
:1007E800F0077008E70065147008EC00F720651042
:0A07F8006908EC00F7206514080002
:10080200831203137408003A031D102C7508003A72
:10081200031D102CFF30F0007F30F100692C831291
:100822000313FD01F901F801710870040319003482
:1008320071087506FA00FA1BFD09FB01F51F262C4B
:10084200F409F509F40A0319F50AF11F2D2CF00930
:10085200F109F00A0319F10A71087504FA00FA1B8A
:10086200422C46217B18552CFD1F0034F009F1095A
:10087200F00A0319F10AF809F909F80A0319F90A41
:100882000034F51F512CF11B4D2C7108F900700832
:10089200F800F101F001352CF101F001F00A003409
:1008A200F109F009FB0A322CF80A0319F90A740853
:1008B2007802031D352C75087902031D352CF901C8
:1008C200F801F00A0319F10AF11F352C0000FF3478
:0208D20008001C
:1008D4008316031307118710871107128712071352
:1008E4008312071187100713871207128711D32069
:1008F400D320D320071687150715C9200711D32045
:100904000715C9200711D3200715C9200711D320C3
:1009140087110715C9200711D3200715C92007110E
:10092400071207170715C9200711D32007138715C6
:100934000715C920071187110715C9200711D320EE
:100944000715C920071187150715C9200711D320DA
:1009540087110715C920071107178716071687156A
:0C0964000715C9200711D32065140800F6
:10097000DC26A8308B008730831603138100FF30FC
:1009800086008801871307108312071088178717BE
:10099000831605146A240130E7000130E8002E3088
:1009A000E900D1210230E7000130E8003A30E900E7
:1009B000D1210B30FB002630FC005D30FD00FD0B2B
:1009C000DF2CFC0BDF2CFB0BDF2C000000000130C8
:1009D000EC00F7200130E7000530E8004630E90080
:1009E000D12100305606031DF72C00305506031D9B
:1009F0002A2E0130D5000030D6000A30F400003035
:100A0000F5005308F0005408F10001247808F000C4
:100A10007908F1007008D7007108D800412D3F30E7
:100A2000D7000030D800912D0630D7000030D80014
:100A3000912D5B30D7000030D800912D4F30D7007A
:100A40000030D800912D6630D7000030D800912DAD
:100A50006D30D7000030D800912D7D30D7000030A8
:100A6000D800912D0730D7000030D800912D7F306D
:100A7000D7000030D800912D6F30D7000030D8005B
:100A8000912D00305806031D472D003057060319DD
:100A90000F2D00305806031D4F2D01305706031946
:100AA000142D00305806031D572D02305706031928
:100AB000192D00305806031D5F2D0330570603190A
:100AC0001E2D00305806031D672D043057060319EC
:100AD000232D00305806031D6F2D053057060319CE
:100AE000282D00305806031D772D063057060319B0
:100AF0002D2D00305806031D7F2D07305706031992
:100B0000322D00305806031D872D08305706031973
:100B1000372D00305806031D8F2D09305706031955
:100B20003C2D0A30F4000030F5005308F000540862
:100B3000F10001240A30F4000030F50001247808A7
:100B4000F0007908F1007008D0007108D100DA2DAA
:100B50003F30D0000030D1002A2E0630D0000030C7
:100B6000D1002A2E5B30D0000030D1002A2E4F3029
:100B7000D0000030D1002A2E6630D0000030D100E5
:100B80002A2E6D30D0000030D1002A2E7D30D000CA
:100B90000030D1002A2E0730D0000030D1002A2E9C
:100BA0007F30D0000030D1002A2E6F30D0000030CE
:100BB000D1002A2E00305106031DE02D00305006D2
:100BC0000319A82D00305106031DE82D01305006F1
:100BD0000319AD2D00305106031DF02D02305006D3
:100BE0000319B22D00305106031DF82D03305006B5
:100BF0000319B72D00305106031D002E0430500696
:100C00000319BC2D00305106031D082E0530500677
:100C10000319C12D00305106031D102E0630500659
:100C20000319C62D00305106031D182E073050063B
:100C30000319CB2D00305106031D202E083050061D
:100C40000319D02D00305106031D282E09305006FF
:100C50000319D52D57088800871388170230FB0029
:100C60000430FC00BA30FD00FD0B342EFC0B342E9A
:100C7000FB0B342E00005008880088138717823041
:100C8000FC00DD30FD00FD0B432EFC0B432E00006D
:100C900000000A30F4000030F5002C08F0002D08A8
:100CA000F10001240A30F4000030F5000124780836
:100CB000F0007908F1003030F00752088400700825
:100CC0008000520AE6000A30F4000030F5002C08DB
:100CD000F0002D08F10001247808F0007908F100F7
:100CE0003030F00766088400700880000230E700AA
:100CF0000830E800520884000008E900CC230230E4
:100D0000E7000930E800520A84000008E900CC231B
:100D10000230E7000B30E8002530E900CC2300303A
:100D20002B06031D952E01302A06031D9B2E0C3029
:100D3000EC00F7209E2E0830EC00F720F12C9F2EBF
:100DB8002A308400373083120313F000A530E10095
:080DC8000630E200C52108001D
:040D4A00013400343C
:040D4E000034003439
:100D5200433461346C34633475346C3461347434C8
:080D620069346E34673400347B
:100D6A004D346F3469347334743475347234653481
:080D7A002E342E342E34003417
:100D82004D346F3469347334743475347234653469
:040D92003A340034BB
:040D960000340034F1
:020D9A005934CA
:040D9C005534003496
:040DA00000340034E7
:040DA40000340034E3
:060DA80030343034003449
:020DAE000F3400
:040DB00000340034D7
:040DB40000340034D3
:02400E004A2F37
:00000001FF
